:10000000803102288731E82FF80078080319092881
:100010000A281E28F31F0D280E281E287009FA0032
:100020007109FB007209FC007309FD00FA0A03194B
:10003000FB0A0319FC0A0319FD0A26287308FD00B0
:100040007208FC007108FB007008FA007308720463
:1000500071047004031D2D282E2837280030F3006A
:100060000030F2000030F1000030F000AF28963090
:10007000F4007408F90047280130F4007408F90707
:100080000130FD36FC0CFB0CFA0C890B4128FE30CC
:100090007D05031D4C284D283C2861280130F400C3
:1000A0007408F9070130FA070030FB3D0030FC3DD1
:1000B0000030FD3D0130FD36FC0CFB0CFA0C890BC9
:1000C0005B28FF307D05031D662867284E287128B0
:1000D0000130F9020130FA35FB0DFC0DFD0D890BE5
:1000E0006B28FC1B742875287B28023079020318C2
:1000F0007A287B28682879187E287F288728FF306F
:10010000FA05FF30FB057F30FC05FF30FD050310CD
:10011000F90C7908F400F501F601F7011830F4350F
:10012000F50DF60DF70D890B8F287408FA04750884
:10013000FB047608FC047708FD0478080319A1285D
:10014000A228A728F31FA528A628A728FD177D0801
:10015000F3007C08F2007B08F1007A08F000080048
:100160002100BC00BA01BB01200049082100D000D9
:10017000200048082100CF00200047082100CE00C1
:10018000200046082100CD0050082000BD002100BD
:100190004F082000BC0021004E082000BB002100B9
:1001A0004D082000BA000030C1000030C00000300F
:1001B000BF000030BE009031222080310318E128BA
:1001C000E228FB2801302100BA000030BB005008B3
:1001D000F3004F08F2004E08F1004D08F0009A318C
:1001E0008722803173082100D0007208CF00710887
:1001F000CE007008CD002100D301D40122005C089C
:100200002100C00022005B082100BF003A083B0427
:10021000031D0B290C2910296E1D0F2910292E29C9
:100220003A083B04031D152916291B292B30A00071
:100230000030A1001F292D30A0000030A1002008AF
:100240002000CB004B082300A00001302100D30781
:100250000030D43DFF30BF07FF30C03D5008F300F1
:100260004F08F2004E08F1004D08F0009E31D226F2
:10027000803170037104031D3E293F29912920001C
:100280004A08BF3ECB00FF3003180030CC000030DE
:100290004C021A3003194B02031C4F29512901301B
:1002A00052290030CD00CE014D082100A2002000CF
:1002B0004E082100A30022082304031960296129A4
:1002C0006B292430F000A030F1005308A03E9B3190
:1002D0009A23803174292C30F000A030F1005308AB
:1002E000A03E9B319A238031FD302100BF07FF30B3
:1002F000C03DA0302000CB004B08A40021004008E6
:100300002000A60021003F082000A50021003C0895
:1003100088310320803120002508C7002408C6004A
:10032000E72F21005008F3004F08F2004E08F100BB
:100330004D08F0009E31D226803170087104031DF3
:10034000A229A329F52920004A08BF3ECB00FF308F
:1003500003180030CC0000304C021A3003194B0255
:10036000031CB329B5290130B6290030CD00CE01D8
:100370004D082100A40020004E082100A5002408FB
:1003800025040319C429C529CF292830F000A0303D
:10039000F1005308A03E9B319A238031D829303098
:1003A000F000A030F1005308A03E9B319A23803129
:1003B000FD302100BF07FF30C03DA0302000CB0042
:1003C0004B08A400210040082000A60021003F089F
:1003D0002000A50021003C08883103208031200046
:1003E0002508C7002408C600E72F3F302100D800A9
:1003F0008030D7000030D6000030D500D101D201C6
:100400005008F3004F08F2004E08F1004D08F000CC
:100410000030F7000030F6000030F5000030F40046
:100420009C31B02480310318162A172ACC2A482A76
:1004300041302000A3002030A2000030A100003095
:10044000A000210058082000A70021005708200024
:10045000A600210056082000A50021005508200014
:10046000A4008A319B228031200023082100D8007B
:10047000200022082100D700200021082100D600FA
:10048000200020082100D5000130D1070030D23DE6
:10049000210050082000BD0021004F082000BC00B2
:1004A00021004E082000BB0021004D082000BA00AA
:1004B0004130A3002030A2000030A1000030A00095
:1004C000210058082000A700210057082000A6009E
:1004D000210056082000A500210055082000A40096
:1004E0008A319B22803120002308C1002208C000ED
:1004F0002108BF002008BE0090312220803103185F
:10050000822A832A182AA52A4130F3002030F200DB
:100510000030F1000030F00021005808F7005708C3
:10052000F6005608F5005508F40096314C26803147
:1005300073082100D8007208D7007108D60070082F
:10054000D500FF30D107FF30D23D210050082000F8
:10055000BD0021004F082000BC0021004E082000F3
:10056000BB0021004D082000BA00210058082000DF
:10057000C100210057082000C000210056082000BB
:10058000BF00210055082000BE009031222080319C
:10059000031CCB2ACC2A842A20004A08CB00CC0199
:1005A0004B08F6004C08F7009C3103248031760894
:1005B0002000CD004D082100C20042082000CB00E1
:1005C0004B082100C10067304206031DE82AE92AD2
:1005D0000E2B6C086D04031DEE2AEF2AF32A01305E
:1005E000EC000030ED006D08803A2000CB00803038
:1005F0004B02031DFE2A013021006C020318012B5F
:10060000022B082B06302100BD000030BE00132B4A
:1006100021006D08BE006C08BD00132BED1B112BD3
:10062000122B022B082B67304206031D182B192BA7
:10063000512B5208803A2000CB007F304B02031D23
:10064000242BFC3021005102031C272B282B4B2B81
:1006500021003D08FF3E2000CB00FF3021003E3D41
:100660002000CC004C08803ACD0021005208803A8E
:1006700020004D02031D402B2100510820004B0299
:10068000031C432B442B4B2B66302000CB004B0824
:100690002100C100512B65302000CB004B08210008
:1006A000C1003E08B3003D08B20067304206031D9A
:1006B0005A2B5B2B652B66304106031D602B612B8B
:1006C000692BD21F642B652B692B0130B2070030D8
:1006D000B33D66304106031D6E2B6F2B872BD21F57
:1006E000722B732B7D2B3F30D8008030D700003029
:1006F000D6000030D500D101D2016730420603197F
:10070000822B832B872B5108B2075208B33DCB01B4
:10071000CC015008C6004F08C5004E08C4004D0863
:10072000C3005808B7005708B6005608B50055086A
:10073000B400482C21005808F3005708F20056086E
:10074000F1005508F0004608F7004508F600440897
:10075000F5004308F40096314C26803173082000E0
:10076000B0007208AF007108AE007008AD009131A2
:1007700097218031200030082100CA0020002F0876
:100780002100C90020002E082100C80020002D08EB
:100790002100C7004A08F3004908F2004808F100A8
:1007A0004708F0009E315E26803171082100B900B3
:1007B0007008B8004A082000A7002100490820005E
:1007C000A600210048082000A500210047082000BD
:1007D000A400210058082000A30021005708200091
:1007E000A200210056082000A10021005508200089
:1007F000A0008A319B22803120002308BD002208FE
:10080000BC002108BB002008BA00210046082000D7
:10081000C100210045082000C0002100440820003C
:10082000BF00210043082000BE009B3159238031C6
:1008300020003D082100C60020003C082100C50022
:1008400020003B082100C40020003A082100C3001A
:100850004130F3002030F2000030F1000030F000B1
:100860005808F7005708F6005608F5005508F40038
:1008700096314C26803173082100D8007208D700C9
:100880007108D6007008D5000130CB070030CC3D90
:100890004C08803A2000CB0021003308803A200029
:1008A0004B02031D562C210032084B02031C592C0D
:1008B0005A2C9A2B40302000A300A030A200003018
:1008C000A1000030A000210058082000A70021004E
:1008D00057082000A600210056082000A50021008E
:1008E00055082000A4008A319B2280312000230873
:1008F0002100CA00200022082100C9002000210890
:100900002100C800200020082100C7004608200060
:10091000BD00210045082000BC0021004408200043
:10092000BB00210043082000BA0021004A08200033
:10093000C100210049082000C00021004808200013
:10094000BF00210047082000BE00903122208031E6
:100950000318AB2CAC2CB62C00302100CA000030A0
:10096000C9000030C8000030C700DB2C2100460859
:10097000F3004508F2004408F1004308F0004A087B
:10098000F7004908F6004808F5004708F4009C31D4
:10099000B0248031031CCD2CCE2CDB2C2100381848
:1009A000D22CD32CDB2C0030CA000030C900003020
:1009B000C8000030C70021004A08F3004908F200CF
:1009C0004808F1004708F0005008F7004F08F6000B
:1009D0004E08F5004D08F40088315C208031730822
:1009E0002100C6007208C5007108C4007008C30069
:1009F00046082000BD00210045082000BC00210061
:100A000044082000BB00210043082000BA00413008
:100A1000A3002030A2000030A1000030A00021007F
:100A200037082000A700210036082000A60021007A
:100A300035082000A500210034082000A4008A31D8
:100A40009B22803120002308C1002208C000210819
:100A5000BF002008BE00903122208031031C312DC0
:100A6000322D6D2D01302100D1070030D23D4130B3
:100A70002000A3002030A2000030A1000030A00020
:100A8000210037082000A700210036082000A6001A
:100A9000210035082000A500210034082000A40012
:100AA0008A319B228031200023082100B7002000DA
:100AB00022082100B600200021082100B5002000F6
:100AC00020082100B40066304106031D682D692D01
:100AD0006D2D0130B2070030B33D21003708D8003A
:100AE0003608D7003508D6003408D50065304106F1
:100AF00003197B2D7C2D812D5208B1005108B000C7
:100B0000832DB001B101AE01AF01AC01AD01CB014C
:100B1000CC01AE2E21005808F3005708F200560809
:100B2000F1005508F0004608F7004508F6004408B3
:100B3000F5004308F40096314C26803173082000FC
:100B4000B0007208AF007108AE007008AD009131BE
:100B500097218031200030082100CA0020002F0892
:100B60002100C90020002E082100C80020002D0807
:100B70002100C7004A08F3004908F2004808F100C4
:100B80004708F0009E315E26803171082100B900CF
:100B90007008B8006E1ACD2DCE2DE32D380839041B
:100BA000031DD32DD42DE32D67304206031DD92D0F
:100BB000DA2DE32DB11FDD2DDE2DE32D0130AC0745
:100BC0000030AD3D3C2E2E082F04031DE82DE92DED
:100BD000202EB11FEC2DED2D202E2E302000CB002D
:100BE00021005308A03E86000130870020004B08FA
:100BF000810001302100D3070030D43DFF30BF0712
:100C0000FF30C03D0130AE000030AF00202E30304C
:100C10002000CB0021005308A03E86000130870051
:100C200020004B08810001302100D3070030D43D63
:100C3000FF30BF07FF30C03DFF30AC07FF30AD3D98
:100C40002C082D04031D252E262E072E3808303E95
:100C50002000CB0021005308A03E86000130870011
:100C600020004B08810001302100D3070030D43D23
:100C7000FF30BF07FF30C03D4A082000A700210019
:100C800049082000A600210048082000A5002100F6
:100C900047082000A400210058082000A3002100DC
:100CA00057082000A200210056082000A1002100C2
:100CB00055082000A0008A319B22803120002308A3
:100CC000BD002208BC002108BB002008BA0021009A
:100CD00046082000C100210045082000C000210076
:100CE00044082000BF00210043082000BE009B31C3
:100CF0005923803120003D082100C60020003C0817
:100D00002100C50020003B082100C40020003A0853
:100D10002100C3004130F3002030F2000030F10028
:100D20000030F0005808F7005708F6005608F500A4
:100D30005508F40096314C26803173082100D80004
:100D40007208D7007108D6007008D500FF30B007D0
:100D5000FF30B13D0130CB070030CC3D4C08803A2C
:100D60002000CB0021003308803A20004B02031DF5
:100D7000BC2E210032084B020318BF2EC02ED02EED
:100D800021005408803A2000CB0080304B02031D24
:100D9000CC2E4B3021005302031CCF2ED02E8A2D97
:100DA00021002E082F04031DD62ED72EEC2E6E1EEA
:100DB000DA2EDB2EEC2E2E302000CB002100530843
:100DC000A03E86000130870020004B0881000130E2
:100DD0002100D3070030D43D5308A03E86000130E7
:100DE0008700810165304106031DF72EF82ED02FB4
:100DF0004F30CB000030CC004B08A03E86000130C5
:100E000087008101BA01BB01D21F072F082F112FC4
:100E10000130BA000030BB00D109D209D10A031950
:100E2000D20A0230BD000030BE004C2FFF3021003E
:100E3000CB07FF30CC3D0A30F0000030F100520803
:100E4000F3005108F2009C31FE2480317008303EDE
:100E50002000CB0021004B08A03E86000130870017
:100E600020004B0881000A30F0000030F100210022
:100E70005208F3005108F2009D31FF2580317108BE
:100E80002100D2007008D100FF30BD07FF30BE3D09
:100E9000FF30BF07FF30C03D51085204031D512FE2
:100EA000522F162F3E08803A2000CB0080304B0294
:100EB000031D5D2F013021003D020318602F612FBB
:100EC000162FFF302100CB07FF30CC3D3A083B0402
:100ED000031D6B2F6C2F712F2B30A6000030A70045
:100EE000752F2D30A6000030A70026082000CB006B
:100EF00021004B08A03E86000130870020004B08EF
:100F00008100FF302100BF07FF30C03DFF30CB071D
:100F1000FF30CC3D20004A08BF3ECB00FF30031815
:100F20000030CC0000304C021A3003194B02031C75
:100F30009A2F9C2F01309D2F0030CD00CE014D08FF
:100F40002100AA0020004E082100AB002A082B0433
:100F5000031DAB2FAC2FB12F6530A8000030A900C6
:100F6000B52F4530A8000030A90028082000CB008C
:100F700021004B08A03E86000130870020004B086E
:100F80008100FF302100BF07FF30C03D4B08A03E6D
:100F9000F0000130F1005308A03E9B319A238031CC
:100FA000A0302000CB004B08A40021004008200006
:100FB000A60021003F082000A50021003C08883140
:100FC0000320803120002508C7002408C60008003F
:100FD0002100EC01ED01EE01EF0151308400013000
:100FE00085000F309A315D228731A03084000130B6
:100FF000850050309A315D22873120009331832B58
:1010040008002000AB0021006E1C09280A281328C0
:1010140020002B08FC007C08F80024089C312824BC
:1010240088312000A61B172818281D282608AA0086
:101034002508A9001F28A901AA01A701A80133288E
:101044002030F0000030F10020002B08FC007C0868
:10105400F2009D315125883101302000A70700306E
:10106400A83D2808803AFC002A08803A7C02031D27
:101074003D2829082702031C402841282228210052
:101084006E18452846284F2820002B08FC007C08B1
:10109400F80024089C3128248831200024089B313E
:1010A40020238831200029087007A4002A08713DF4
:1010B400A5000800730880392000A0002008F8006B
:1010C4007335A0002008FA00F21F69286A286B28EB
:1010D4007A147A0803196F28702880287A0A031D65
:1010E400742875287D280030F3000030F2000030A9
:1010F400F1000030F000F217F30188280030F3000B
:101104000030F2000030F1000030F0007708803940
:10111400A0002008F900790878060319922893287A
:10112400942878177735A0002008F900F61F9B282B
:101134009C289D28791479080319A128A228B2288B
:10114400790A031DA628A728AF280030F70000302D
:10115400F6000030F5000030F400F617F701BA2865
:101164000030F7000030F6000030F5000030F400E5
:101174007A0879020318BF28C0280429781FC328D5
:10118400C428C8288030A0002008F8067A08A000E7
:101194002008FB007908A0002008FA007B08A000C2
:1011A4002008F9007008A0002008FB007408A000C3
:1011B4002008F0007B08A0002008F4007108A000BB
:1011C4002008FB007508A0002008F1007B08A0009F
:1011D4002008F5007208A0002008FB007608A00093
:1011E4002008F2007B08A0002008F6007308A00085
:1011F4002008FB007708A0002008F3007B08A0006B
:101204002008F700FB017908A000A1012108A30030
:101214007A082002A200031CA3032308803AA40036
:1012240080302402031D18291A302202031C1B29B2
:101234001C2956297308720471047004031D2329A0
:1012440025290130262900302000A0002008FB00B9
:101254000030F3000030F2000030F1000030F00004
:101264007908A0002008FA005C297B1C3A293B2954
:1012740042297B3601382000A0002008FB004429C5
:101284000310FB0C701C472948294929FB1701301E
:101294002000A000F337F20CF10CF00CA00B4C2949
:1012A4000130A0002008FA0779087A02031C5B29A0
:1012B4005C293729781B5F2960299A297A08031D3C
:1012C400642965296E290030F3000030F2000030F3
:1012D400F1000030F0009A2A7408F0077508F13D17
:1012E4007608F23D7708F33D731C79297A29272A79
:1012F4007B1C7D297E2985297B3601382000A000AE
:101304002008FB0087290310FB0C701C8A298B29F9
:101314008C29FB1701302000A000F337F20CF10CEC
:10132400F00CA00B8F290130A0002008FA07272A0F
:101334007308803A2000A0007708803A2002031D39
:10134400AD2976087202031DAD2975087102031DCB
:10135400AD29740870020318B029B129E929FF30B6
:10136400A000FF30A100FF30A200FF30A3007008EE
:101374007402A4007108753BA5007208763BA600B0
:101384007308773BA7002408A0072508A13D260879
:10139400A23D2708A33D2308F3002208F2002108F8
:1013A400F1002008F0008030A0002008F806FB09B6
:1013B400FB0A7B08031DDF29E029F1290130F0072E
:1013C4000030F13D0030F23D0030F33DF129740866
:1013D400F0027508F13B7608F23B7708F33B73089B
:1013E400720471047004031DF829F929232A7B0867
:1013F400031DFD29FE29232A0030F3000030F200EA
:101404000030F1000030F0009A2A0130F035F10D7F
:10141400F20DF30D890B082AFB1F112A122A132A35
:1014240070147B1C162A172A1A2A0314FB0D1C2A73
:101434000310FB0D7A080319202A212A232A0130DC
:10144400FA02F21F262A272A072AF901FB1F2B2A50
:101454002C2A3A2A7B087F390319312A322A352A61
:10146400F901F90A3A2A701C382A392A3A2A322A06
:10147400790803193E2A3F2A6D2A0130F00700300B
:10148400F13D0030F23D0030F33D731C4A2A4B2AF3
:101494006D2A70082000A0007108A1007208A20043
:1014A4007308A3000130A400A337A20CA10CA00C64
:1014B400A40B562A2308F3002208F2002108F100A5
:1014C4002008F0007A0A0319682A692A6D2A013073
:1014D400A0002008FA077A0A0319712A722A772AC7
:1014E4007A08031D762A772A852A0030F300003013
:1014F400F2000030F1000030F0007A08031D832A66
:10150400842A852AF8017A1C882A892A8B2AF217C8
:10151400902A7F302000A0002008F2057A362000AF
:10152400A0002008F300F81F982A992A9A2AF31792
:101534000800200023088039A8002808AD002335BE
:10154400A8002808B300A21FA82AA92AAA2A33148B
:1015540033080319AE2AAF2ABE2A330A031DB32A5D
:10156400B42ABC2A0030A3000030A2000030A1003D
:101574000030A000A217C62A0030A3000030A20049
:101584000030A1000030A00027088039A8002808F6
:10159400AD062735A8002808B200A61FD22AD32AF0
:1015A400D42A321432080319D82AD92AE82A320A4A
:1015B400031DDD2ADE2AE62A0030A7000030A6003B
:1015C4000030A5000030A400A617F02A0030A700C0
:1015D4000030A6000030A5000030A4003208031932
:1015E400F42AF52AFA2A3308031DF92AFA2A032BC6
:1015F4000030A3000030A2000030A1000030A000A1
:10160400F12C2008A8002808F00026089B31BB23F1
:101614008A3171082000B9007008B8003808A800A1
:10162400A901AA01AB012B08B1002A08B0002908BE
:10163400AF002808AE003908A800A901AA01AB012F
:101644002B08B7002A08B6002908B5002808B400FA
:101654002108A8002808F00025089B31BB238A3103
:1016640071082000B9007008B8003808A800A90162
:10167400AA01AB012808AE072908AF3D2A08B03DEE
:101684002B08B13D3908A800A901AA01AB0128081B
:10169400B4072908B53D2A08B63D2B08B73D2208F2
:1016A400A8002808F00024089B31BB238A31710864
:1016B4002000B9007008B8003808A800A901AA01E0
:1016C400AB012808AE072908AF3D2A08B03D2B0816
:1016D400B13D3908A800A901AA01AB012808B40743
:1016E4002908B53D2A08B63D2B08B73D0830AE356C
:1016F400AF0DB00DB10D890B792B2108A800280876
:10170400F00024089B31BB238A3171082000B90002
:101714007008B8003808AE073908AF3D0030B03D56
:10172400B13D2008A8002808F00025089B31BB2300
:101734008A3171082000B9007008B8003808AE0773
:101744003908AF3D0030B03DB13D0830AE35AF0D86
:10175400B00DB10D890BA82B2008A8002808F000B3
:1017640024089B31BB238A3171082000B90070081A
:10177400B8003808AE073908AF3D0030B03DB13D80
:101784002108A8002808F00026089B31BB238A31D1
:1017940071082000B9007008B8003808B407390887
:1017A400B53D0030B63DB73D2208A8002808F0003A
:1017B40025089B31BB238A3171082000B9007008C9
:1017C400B8003808B4073908B53D0030B63DB73D18
:1017D4002208A8002808F00026089B31BB238A3180
:1017E40071082000B9007008B8003808A80039084A
:1017F400A900AA01AB010830A835A90DAA0DAB0DAB
:10180400890BFE2B2808B4072908B53D2A08B63DE4
:101814002B08B73D2E08A8002F08A9003008AA00FD
:101824003108AB001830AB36AA0CA90CA80C890BF4
:10183400152C2808B4072908B53D2A08B63D2B08FD
:10184400B73D0830AE35AF0DB00DB10D890B242C6A
:1018540033083207A800A901A90D2808823EB80060
:10186400FF30293DB9004D2C0130B435B50DB60D0E
:10187400B70D890B372CB11F402C412C422C34144A
:101884000130AE35AF0DB00DB10D890B432CFF30D7
:10189400B807FF30B93DB61F502C512C362CB2017D
:1018A400B11F552C562C722CFF302E05A800FF308A
:1018B4002F05A900FF303005AA007F303105AB00A9
:1018C4002B082A04290428040319692C6A2C6D2C7A
:1018D400B201B20A722C341C702C712C722C6A2C3A
:1018E40032080319762C772C9F2C0130B407003072
:1018F400B53D0030B63D0030B73D371C822C832CFB
:101904009F2C3408A8003508A9003608AA00370817
:10191400AB000130AC00AB37AA0CA90CA80CAC0B83
:101924008D2C2B08B7002A08B6002908B500280812
:10193400B4000130B8070030B93D3908803AA80036
:1019440080302802031DA82CFF303802031CAB2C66
:10195400AC2CB62C7F302000B7008030B6000030AD
:10196400B5000030B400E52C20003908803AA80006
:1019740080302802031DC02C013038020318C32C08
:10198400C42CCF2C00302000B7000030B60000304B
:10199400B5000030B400AD01E52C20003808A800E3
:1019A4002808B300FF30B405FF30B5057F30B60515
:1019B4000030B705331CDF2CE02CE12CB61733368E
:1019C400A8002808B7002D08A8002808B70437087D
:1019D400A3003608A2003508A1003408A0000800BE
:1019E4002000ED004F0886008701403FD100413FB1
:1019F400D20051088400520885001200253A031DC4
:101A0400042D052DDC2F4F08860087010130810746
:101A140041310318810A2200DB01DC012100EE01BF
:101A2400EF01FF30EC00FF30ED0020004F0886008E
:101A34008701403FD100413FD20051088400520841
:101A4400850012002A3A031D282D292D4C2D4F08FC
:101A5400860087010130810741310318810A50084B
:101A64008600013087000108840085010230810767
:101A7400003F2200DB00013FDC00DC1F422D432D30
:101A84008E2D21006E142200DB09DC09DB0A031908
:101A9400DC0A8E2D4F0886008701403FF600413F47
:101AA400F7009F3151278C3177082200DC0076083B
:101AB400DB00642D4F088600870101308107413126
:101AC4000318810A20004F0886008701403FD10097
:101AD400413FD20051088400520885000008D03EDE
:101AE400D300FF3003180030D400003054020A3011
:101AF40003195302031C7F2D812D0130822D0030E8
:101B0400D500D6015508DF005608E0005F086004E0
:101B1400031D8D2D8E2D5C2D20004F08860087011E
:101B2400403FD100413FD200510884005208850053
:101B340012002E3A031D9F2DA02D162E2100EC011C
:101B4400ED0120004F0886008701013081074131F3
:101B54000318810A4F0886008701403FD100413FA6
:101B6400D200510884005208850012002A3A031D4D
:101B7400BC2DBD2DD42D4F0886008701013081076F
:101B840041310318810A500886000130870001089A
:101B94008400850102308107003F2100EC00013FF1
:101BA400ED00162E4F0886008701403FF600413FA6
:101BB400F7009F3151278C3177082100ED0076081A
:101BC400EC00EC2D4F08860087010130810741317C
:101BD4000318810A20004F0886008701403FD10086
:101BE400413FD20051088400520885000008D03ECD
:101BF400D300FF3003180030D400003054020A3000
:101C040003195302031C072E092E01300A2E00303B
:101C1400D500D6015508E1005608E20061086204C7
:101C2400031D152E162EE42D20004F088600870173
:101C3400403FD100413FD200510884005208850042
:101C44000008D300D4015308F6005408F7009C316F
:101C540003248C3176082000D5005508E900690872
:101C64000319352E362E752E4F0886008701403F06
:101C7400D100413FD20001305107840052080318BB
:101C8400520A85000008D300D4015308F600540812
:101C9400F7009C3103248C3176082000D5005508C8
:101CA400EA006A080319572E582E752E4F0886002D
:101CB4008701403FD100413FD200023051078400E8
:101CC40052080318520A85000008D300D4015308AF
:101CD400F6005408F7009C3103248C317608200068
:101CE400D5005508EB004F0886008701403FD1001E
:101CF400413FD20051088400520885001200643A22
:101D04000319852E862E972E4F0886008701403FA3
:101D1400D100413FD20051088400520885001200CE
:101D2400693A031D962E972ED32E4F0886008701FD
:101D34000130810741310318810A500886000130BF
:101D4400870001088400850102308107003FD1002B
:101D5400013FD2005108D7005208D800890D893BB1
:101D64008909D900DA00DB00DC00DD00DE00570859
:101D7400B0005808B1005908B2005A08B3005B0813
:101D8400B4005C08B5005D08B6005E08B7006D08D5
:101D94009431DC248C3120003108D0003008CF008D
:101DA400FF2F66306906031DD82ED92E172F4F0832
:101DB40086008701403FD100413FD2005108840092
:101DC400520885000008D3005308EC004F08860031
:101DD40087010130810741310318810A50088600C8
:101DE4000130870001088400850104308107003F29
:101DF400E500013FE600023FE700033FE800680812
:101E0400C9006708C8006608C7006508C6006C08F2
:101E1400D1005108CA006D088031B0208C312000F7
:101E24004708D0004608CF00FF2F3430F000A03020
:101E3400F1000230F2000030F30069309D31A72533
:101E44008C3170087104031D282F292FA62F200020
:101E54004F0886008701403FD100413FD200013046
:101E64005107840052080318520A85000008D30061
:101E74005308EC004F0886008701403FD100413FE2
:101E8400D20051088400520885000008BF3ED300E8
:101E9400FF3003180030D400003054021A30031904
:101EA4005302031C562F582F0130592F0030D500F0
:101EB400D6015508E3005608E400630864040319D6
:101EC400642F652F772F50088600013087000108A2
:101ED4008400850104308107003FE500013FE600EE
:101EE400023FE700033FE800882F500886000130D6
:101EF400870001088400850104308107003FE50064
:101F0400013FE600023FE700033FE8004F08860078
:101F140087010230810741310318810A6808C9002A
:101F24006708C8006608C7006508C6006C08D100C9
:101F34005108CA006D088031B0208C312000470858
:101F4400D0004608CF00FF2F20004F0886008701ED
:101F5400403FD100413FD20051088400520885001F
:101F64001200253A031DB72FB82FD12F4F08860032
:101F740087010130810741310318810A2530F000BF
:101F84000030F1006D08D1005108F2009D31512557
:101F94008C3101302000CF000030D000FF2F4F08DB
:101FA400860087010130810741310318810ACF017E
:101FB400D001FF2F4F0886008701403FD100413FE9
:101FC400D20051088400520885000008D300D401CF
:101FD4005308F0005408F1006D08D5005508F200CC
:101FE4009D3151258C3120004F0886008701013036
:101FF400810741310318810ACB2F080008302300E0
:102004009F0090309D0024309E0067309B009C010F
:102014000030F0000030F1009A315122903100304C
:10202400F0000030F1009A31572290310030F00076
:102034000030F1009A314B2290312200DF01080078
:10204400003020003A05C20000303B05C300803058
:102054003C05C4007F303D05C500450844044304E5
:102064004204031D362837283F280030BD000030C5
:10207400BC000030BB000030BA0000303E05C20096
:1020840000303F05C30080304005C4007F30410567
:10209400C5004508440443044204031D5228532840
:1020A4005B280030C1000030C0000030BF000030A9
:1020B400BE00BD1F5E285F2877280030C2000030B4
:1020C400C3000030C4008030C5003A08C2023B0897
:1020D400C33B3C08C43B3D08C53B4508BD00440820
:1020E400BC004308BB004208BA00C11F7A287B2801
:1020F40093280030C2000030C3000030C400803098
:10210400C5003E08C2023F08C33B4008C43B410827
:10211400C53B4508C1004408C0004308BF0042084D
:10212400BE008030BD068030C10641083D02031D5B
:10213400A52840083C02031DA5283F083B02031DB7
:10214400A5283E083A020318A828A928AB2803109A
:10215400AC2803140800F201283086000030870000
:10216400473FF000F01FB728B828D9282000A80955
:10217400A909AA09AB09AC09AD09AE09AF09A80AB6
:10218400031DD728A90A031DD728AA0A031DD72887
:10219400AB0A031DD728AC0A031DD728AD0A031DBB
:1021A400D728AE0A031DD728AF0AF201F20A20305D
:1021B400860000308700473FF000F01FE228E32844
:1021C40002292000A009A109A209A309A409A509BB
:1021D400A609A709A00A031D0229A10A031D0229B1
:1021E400A20A031D0229A30A031D0229A40A031D2E
:1021F4000229A50A031D0229A60A031D0229A70A0A
:102204002000200821042204230424042504260495
:10221400270403190E290F296229F101F10A1E2945
:10222400A035A10DA20DA30DA40DA50DA60DA70DFE
:102234000130F0007008F107A71F21292229122973
:1022440027082F02031D402926082E02031D4029BA
:1022540025082D02031D402924082C02031D4029B2
:1022640023082B02031D402922082A02031D4029AA
:1022740021082902031D402920082802031C4329A0
:10228400442954292008A8022108A93B2208AA3B72
:102294002308AB3B2408AC3B2508AD3B2608AE3BEA
:1022A4002708AF3BA736A60CA50CA40CA30CA20CC4
:1022B400A10CA00C0130F102031D6129622922291D
:1022C40072080319662967298529A809A909AA0991
:1022D400AB09AC09AD09AE09AF09A80A031D8529EC
:1022E400A90A031D8529AA0A031D8529AB0A031D12
:1022F4008529AC0A031D8529AD0A031D8529AE0A6B
:10230400031D8529AF0A20002808A0002908A10080
:102314002A08A2002B08A3002C08A4002D08A5005D
:102324002E08A6002F08A700080022005408200049
:10233400C000220053082000BF00220052082000E1
:10234400BE00220051082000BD003008C0002F0844
:10235400BF002E08BE002D08BD003D08B1003E0898
:10236400B2003F08B3004008B4001730B436B30CD1
:10237400B20CB10C890BB829FF303105B50000301F
:102384003205B6003508813EBB00FF30363DBC0047
:102394003C08803AB10080303102031DD329173044
:1023A4003B02031CD629D729D829812A2000BC1B2B
:1023B400DC29DD293A2AFF30B100FF30B2007F303A
:1023C400B3000030B4003B0AEB29B437B30CB20CB1
:1023D400B10C890BE7293408BA003308B900320874
:1023E400B8003108B7003D083705B1003E0838058C
:1023F400B2003F083905B30040083A05B400340878
:10240400330432043104031D082A092A0A2AD7296D
:102414003D08B1003E08B2003F08B3004008B400D4
:102424001F30B436B30CB20CB10C890B132A340828
:102434003304320431040319202A212A292A3708B3
:10244400BD073808BE3D3908BF3D3A08C03D3709CD
:10245400B1003809B2003909B3003A09B4003108AF
:10246400BD053208BE053308BF053408C005792A06
:102474003D08B1003E08B2003F08B3004008B40074
:102484001F30B436B30CB20CB10C890B432A340898
:10249400330432043104031D502A512A5A2A0030CD
:1024A400C0000030BF000030BE000030BD00792AFB
:1024B4003D08B1003E08B2003F08B3004008B40034
:1024C4000130B135B20DB30DB40D890B632A340854
:1024D4003304320431040319702A712A792ABF3073
:1024E400C0008030BF000030BE000030BD00400896
:1024F400B0003F08AF003E08AE003D08AD00080044
:10250400F2012030860000308700473FF000F01FC2
:102514008C2A8D2AAE2A2000A009A109A209A309A8
:10252400A409A509A609A709A00A031DAC2AA10AA2
:10253400031DAC2AA20A031DAC2AA30A031DAC2A5C
:10254400A40A031DAC2AA50A031DAC2AA60A031D6E
:10255400AC2AA70AF201F20A28308600003087006C
:10256400473FF000F01FB72AB82ADB2A2000A80949
:10257400A909AA09AB09AC09AD09AE09AF09A80AB2
:10258400031DD72AA90A031DD72AAA0A031DD72A7D
:10259400AB0A031DD72AAC0A031DD72AAD0A031DB3
:1025A400D72AAE0A031DD72AAF0A0130F0007008FB
:1025B400F20673308600003087000830F0000030E7
:1025C4001E00F00BE22A2000200821042204230428
:1025D40024042504260427040319F12AF22A4E2B85
:1025E400F101F10A012BA035A10DA20DA30DA40D3B
:1025F400A50DA60DA70D0130F0007008F107A71F67
:10260400042B052BF52AF335F40DF50DF60DF70D16
:10261400F80DF90DFA0D27082F02031D2B2B2608A0
:102624002E02031D2B2B25082D02031D2B2B240802
:102634002C02031D2B2B23082B02031D2B2B2208FA
:102644002A02031D2B2B21082902031D2B2B2008F2
:102654002802031C2E2B2F2B402B2008A802210814
:10266400A93B2208AA3B2308AB3B2408AC3B250822
:10267400AD3B2608AE3B2708AF3B7314A736A60C28
:10268400A50CA40CA30CA20CA10CA00C0130F1020B
:10269400031D4D2B4E2B052B72080319522B532B64
:1026A400712BF309F409F509F609F709F809F90991
:1026B400FA09F30A031D712BF40A031D712BF50AA1
:1026C400031D712BF60A031D712BF70A031D712BD1
:1026D400F80A031D712BF90A031D712BFA0A7308FA
:1026E4002000A0007408A1007508A2007608A300C9
:1026F4007708A4007808A5007908A6007A08A7003E
:1027040008009A319222933106302100E9001330F7
:10271400E800AD30890B8C2BE80B8C2BE90B8C2B50
:1027240000320030F100A030F2009A31A52293313A
:1027340000302200C6000030C5000030C400003064
:10274400C300CD01CE0102309A31EC2293317008DE
:102754002200C3077108C43D0030C53DC63D0130A9
:10276400CD070030CE3D4E08803A2100E80083308A
:102774006802031DC02BE83022004D02031CC32B4A
:10278400C42BA52B3B302000A300A030A20028308E
:10279400A1000A30A00022004608F3004508F20018
:1027A4004408F1004308F0000130803104209331E3
:1027B40073082000A7007208A6007108A50070081D
:1027C400A4008A319B229331200023082200C200F6
:1027D400200022082200C100200021082200C0009D
:1027E400200020082200BF004430F3007A30F200B9
:1027F4000030F1000030F0004208F7004108F60014
:102804004008F5003F08F40096314C2693317308D4
:102814002200CA007208C9007108C8007008C70005
:10282400CF01D0015E2C22004A082000BD00220006
:1028340049082000BC00220048082000BB002200F8
:1028440047082000BA0022005008F1004F08F000A9
:102854000630F2000030F3009B313A2393317108C3
:10286400850070088400003084079830853D003F5F
:102874002100E800013FE900023FEA00033FEB00CA
:102884006B082000C10021006A082000C00021005C
:1028940069082000BF00210068082000BE009031B4
:1028A400222093310318572C582C592C7C2C01309E
:1028B4002200CF070030D03D5008F1004F08F0004F
:1028C4000630F2000030F3009B313A239331710853
:1028D400850070088400043084079830853D120018
:1028E400FF3A2100E8001200FF3AE804031D7B2CA4
:1028F4007C2C152C22005008F1004F08F000063003
:10290400F2000030F3009B313A23933171088500C3
:1029140070088400043084079830853D003F22000D
:10292400CB00013FCC0018302100DF00A030E000D4
:1029340022004C082100E20022004B082100E100A3
:1029440022004A082100E600220049082100E5008F
:10295400220048082100E400220047082100E30087
:1029640029309C31512493312930F1000130F20097
:102974009A31A5229331003022004C0233300319DE
:102984004B020318C62CC72CCA2C8E140E10CC2C48
:102994008E100E1406302100E9001330E800AD302B
:1029A400890BD22CE80BD22CE90BD22C00329A2BB7
:1029B400803102282000BD003008C4003108C50061
:1029C4003208C6003308C7003408C8003508C900F7
:1029D4003608CA003708CB00443086000030870030
:1029E400473FB800B81BF72CF92C0130FA2C003003
:1029F4002000B900BA013908C2003A08C3004208ED
:102A040043040319062D072D252DC409C509C6093C
:102A1400C709C809C909CA09CB09C40A031D252D58
:102A2400C50A031D252DC60A031D252DC70A031D2E
:102A3400252DC80A031D252DC90A031D252DCA0AE3
:102A4400031D252DCB0A2100ED1B292D2A2D2E2D0A
:102A5400FD30EE05FF30EF056D08803A2000B80028
:102A640080303802031D392D013021006C02031817
:102A74003C2D3D2D432D01302000BE000030BF0011
:102A84004B2D21006D082000BF0021006C082000A0
:102A9400BE0022005C082000C10022005B08200068
:102AA400C00042084304031D582D592D5E2D2100FA
:102AB4006E1D5D2D5E2D632DFF302000C007FF309D
:102AC400C13D4F302000CC000030CD002300EF0189
:102AD400D42DFF302000CC07FF30CD3D0A30A000BC
:102AE400A101A201A301A401A501A601A701440813
:102AF400A8004508A9004608AA004708AB004808F2
:102B0400AC004908AD004A08AE004B08AF00903154
:102B1400AD20943120002108F4002008F3009B31FB
:102B2400062394317308303E2000B8004C08A03EC0
:102B340086000130870038088100FF30BE07FF306F
:102B4400BF3DFF30C007FF30C13D0A30A000A101E6
:102B5400A201A301A401A501A601A7014408A8009C
:102B64004508A9004608AA004708AB004808AC007D
:102B74004908AD004A08AE004B08AF0092318222EA
:102B8400943120002008C4002108C5002208C60092
:102B94002308C7002408C8002508C9002608CA005D
:102BA4002708CB0020004D08803AB8008030380256
:102BB400031DDE2D01304C02031CE12DE22D0F2EEE
:102BC40020004408450446044704480449044A04D0
:102BD4004B04031DEE2DEF2D6B2D3F08803AB800FA
:102BE40080303802031DF82D01303E020318FB2DFE
:102BF400FC2D6B2D20004108803AB800803038024B
:102C0400031D062E01304002031C092E0A2E0F2E2E
:102C14002100EE180E2E0F2E6B2D200042084304C7
:102C2400031D152E162E1B2E21006E1D1A2E1B2E73
:102C3400382EFF302000CC07FF30CD3D420843043E
:102C4400031D252E262E2B2E2B30BB000030BC005E
:102C54002F2E2D30BB000030BC003B08B8004C08C0
:102C6400A03E8600013087003808810020004C080F
:102C7400A03EB8003808A4004108A6004008A500FA
:102C84003D0888310320943120002508B100240830
:102C9400B000080077088039F80078082000A40004
:102CA4007735F8007808AB00F61F592E5A2E5B2EA4
:102CB4002B142B0803195F2E602E702E2B0A031D74
:102CC400642E652E6D2E0030F7000030F6000030C3
:102CD400F5000030F400F617F701782E0030F70005
:102CE4000030F6000030F5000030F400730880393D
:102CF400F8007808A4067335F8007808AC00F21FD1
:102D0400842E852E862E2C142C0803198A2E8B2EA5
:102D14009B2E2C0A031D8F2E902E982E0030F3002C
:102D24000030F2000030F1000030F000F217F3013F
:102D3400A32E0030F3000030F2000030F100003028
:102D4400F0007308720471047004031DAA2EAB2EE4
:102D5400C42E0030F7000030F6000030F5000030DB
:102D6400F4008030F6047F30F7042408F800780873
:102D7400F7047708F3007608F2007508F100740888
:102D8400F000FF2F2B08031DC82EC92ED22E0030B1
:102D9400F3000030F2000030F1000030F000FF2FAB
:102DA4002B08F800F9017908FB002C087802FA00D6
:102DB400031CFB037A087F3EA50000307B3DA60080
:102DC4007708A3007608A2007508A1007408A00083
:102DD4000030F7000030F6000030F5000030F40059
:102DE4000030AA000030A9000030A8000030A7007D
:102DF400AC013A2F2C080319002F012F1B2F01308F
:102E0400A035A10DA20DA30D890B022F0130F435BD
:102E1400F50DF60DF70D890B092FAA1F122F132F8D
:102E2400142F74140130A735A80DA90DAA0D890B10
:102E3400152F73082302031D292F72082202031D74
:102E4400292F71082102031D292F70082002031C59
:102E54002C2F2D2F362F2A177008A0027108A13BA2
:102E64007208A23B7308A33B0130F8007808AC0752
:102E74001A302C02031C3F2F402FFC2E230822045F
:102E8400210420040319472F482F612F2714612F91
:102E94000130F435F50DF60DF70D890B4B2FAA1FF4
:102EA400542F552F562F74140130A735A80DA90D92
:102EB400AA0D890B572FFF30A507FF30A63DF61F3B
:102EC400642F652F4A2FAC01AA1F692F6A2F862F02
:102ED400FF302705F800FF302805F900FF302905E9
:102EE400FA007F302A05FB007B087A047904780411
:102EF40003197D2F7E2F812FAC01AC0A862F741C01
:102F0400842F852F862F7E2F2C0803198A2F8B2F31
:102F1400B32F0130F4070030F53D0030F63D0030AA
:102F2400F73D771C962F972FB32F7408F800750878
:102F3400F9007608FA007708FB000130FC00FB3743
:102F4400FA0CF90CF80CFC0BA12F7B08F7007A089B
:102F5400F6007908F5007808F4000130A507003080
:102F6400A63D2608803AF80080307802031DBC2F65
:102F7400FF302502031CBF2FC02FCD2FFF302000B0
:102F8400A5000030A6000030F7000030F600003045
:102F9400F5000030F40020002608803AF800803064
:102FA4007802031DD72F013025020318DA2FDB2FF7
:102FB400E72F2000A501A6010030F7000030F6003D
:102FC4000030F5000030F400A40120002508F800CA
:102FD4007808AB002B1CEF2FF02FF22FF617F62FEB
:102FE4007F30F8007808F6052B36F8007808F700EB
:102FF4002408F8007808F704BB2E0800CD34CC343C
:103004000C3440343234003466346634163440347C
:103014003C340034333433342334403446340034C1
:103024001F3485342B34403450340034E1347A3442
:10303400343440345A3400345234B8343E34403496
:10304400643400341434AE34473440346E340034C1
:1030540000340034503440347834003466346634F8
:103064005634403482340034CD34CC345C3440346F
:103074008C34003433343334633440349634003481
:103084006634663466344034A03400341F348534E6
:103094006B344034AA3400345234B8346E3440347F
:1030A400B4340034D734A33470344034BE340034E0
:1030B4003334333473344034C83400348F34C2343A
:1030C40075344034D23400343D340A3477344034D7
:1030D400DC340034F63428347C344034E6340034B0
:1030E400CD34CC347C344034F0340034A4347034E3
:1030F4007D344034FA3400347B3414347E34403428
:10310400043401345234B8347E3440340E3401343F
:1031140029345C347F3440341834013400340034AE
:103124008034403422340134EC345134803440341B
:103134002C340134D734A33480344034363401344D
:10314400C334F5348034403440340134AE3447342D
:10315400813440344A3401349A34993481344034CB
:10316400543401348534EB34813440345E340134D6
:1031740071343D3482344034683401345C348F34E7
:1031840082344034723401344834E134823440347B
:103194007C3401343334333483344034863401345E
:1031A4003334333483344034903401341F3485341D
:1031B400833440349A3401340A34D7348334403469
:1031C400A4340134F634283484344034AE34013425
:1031D400E1347A3484344034B8340134CD34CC34DA
:1031E40084344034C2340134B8341E348534403419
:1031F400CC340134A434703485344034D6340134AE
:103204008F34C23485344034E03401347B34143494
:1032140086344034EA3401346634663486344034C7
:10322400F4340134003400348034BF34FF34FF34C8
:10348E00163021009700080071082200E100700834
:10349E00E000080071082200E5007008E400080052
:1034AE0071082200E3007008E20008006400800149
:1034BE000131890B5E2A0034320091019201930191
:1034CE009401950196010800803021009E009F0115
:1034DE009B019C0101309D00080060303200990074
:1034EE009B019D0103309F009E010800F00020000B
:1034FE00111E822A832A7E2A700823009A00080051
:10350E00730872047104700403198E2A8F2A912A8B
:10351E008030F30608009A3163229A319B31DE2304
:10352E009A319A3174229A319A3147229A319A31CC
:10353E006B229A31903100209A310800B22A71081C
:10354E0084007208850000089A317D229A3101307C
:10355E00F1070030F23D71088400720885001200F8
:10356E00031DBA2ABB2AA62A08007008D03EF20014
:10357E00FF30713DF300003073020A3003197202FE
:10358E00031CCA2ACC2A0130CD2A0030F400F501E2
:10359E007408F0007508F10008007008BF3EF200D4
:1035AE00FF30713DF300003073021A3003197202BE
:1035BE00031CE22AE42A0130E52A0030F400F5016A
:1035CE007408F0007508F1000800F3007308F200AB
:1035DE00F20DF20D21001D087206033972069D00D0
:1035EE001D1400320032000021009D149D18002B86
:1035FE00012BFD2A1C08F1001B08F00008007408BE
:10360E00803AF50080307502031D0F2B01307302D6
:10361E000318122B132B1F2B7309F5007409F600D8
:10362E00F50A0319F60A7508F3007608F4001F2B45
:10363E000800F4007408F2007208F3002A2B01301F
:10364E00F2007208F4077408860001308700010842
:10365E00031D322B332B262B73087402F000F1015D
:10366E00F01BF1030800F401F501701C3F2B402BF9
:10367E00442B7208F4077308F53D0130F235F30D53
:10368E00890B452B0130F136F00C890B4A2B700853
:10369E007104031D532B542B3C2B7508F100740839
:1036AE00F000080080302000BD064108F3004008FD
:1036BE00F2003F08F1003E08F0003D08F7003C081C
:1036CE00F6003B08F5003A08F40088315C209B3187
:1036DE0073082000BD007208BC007108BB007008A2
:1036EE00BA000800F401F40A2030700671040319C0
:1036FE00812B822B922B7008F73EF200FF30713D2A
:10370E00F30000307302053003197202031C902B74
:10371E00912B922BF4017408F200F3017208F00061
:10372E007308F1000800F7007108F5007008F40046
:10373E007708F2007208F6007608860001308700DE
:10374E00F60A7508F3007408F200F40A0319F50A74
:10375E0072088400730885000008C03F8908031DA5
:10376E00B92BBA2BA32B0800F800F401F501700851
:10377E00F200F3017208F6007308F700781CC82BEC
:10378E00C92BCD2B7608F4077708F53D0130F635B9
:10379E00F70D890BCE2B0310F80C7808031DD82BD0
:1037AE00D92BC52B7508F1007408F0000800220013
:1037BE008C018E01073021008C0024308E000B30DE
:1037CE0023008E0007308C0024008C0104308E0004
:1037DE0025008C018E01373026008C003F308E0084
:1037EE003F3027008C003F308E0015303C00A40087
:1037FE0014303D00A40008007608BF3EF800FF30EC
:10380E00773DF900003079021A3003197802031C53
:10381E00112C132C0130142C0030FA00FB017A0805
:10382E00FC007B08FD007C087D0403191F2C202C56
:10383E00272C20307604F60000307704F700272C72
:10384E0008002000A300A101A201402C2008F900CD
:10385E00FA017908F0007A08F1007808FB007B087D
:10386E00F2009D3151259C3101302000A10700301E
:10387E00A23D21082307F900790886000130870050
:10388E000108FA007A08A0002008031D4F2C502CC6
:10389E002D2C08002200A200E1302100E70067086D
:1038AE002200A30022082100E70067082200A400DE
:1038BE00A501A601A701A80121006008DA005F0892
:1038CE00D9002330E7006708DB0024309C317B24CD
:1038DE009C312200250822072100E7006708860098
:1038EE0001308700810108002100DC005A08DE004B
:1038FE005908DD002200D901DA019D2CDD302000AF
:10390E00EE006E08CF0021005B082000EF006F086C
:10391E00D00021005C088C31F2249C3120004F082D
:10392E002200D907200050082200DA3D21005D0850
:10393E0084005E0885001200031DA62CA72C852C82
:10394E0022005A082100DA00220059082100D9006D
:10395E00080000307005F80000307105F900803065
:10396E007205FA007F307305FB007B087A04790438
:10397E007804031DC32CC42CCC2C0030F300003073
:10398E00F2000030F1000030F00000307405F80055
:10399E0000307505F90080307605FA007F30770526
:1039AE00FB007B087A0479047804031DDF2CE02CDD
:1039BE00E82C0030F7000030F6000030F500003043
:1039CE00F40077087306031DF62C76087206031DA5
:1039DE00F62C75087106031DF62C74087006031973
:1039EE00F92CFA2CFC2C0310FD2C03140800F60104
:1039FE00F31F022D032D0A2DF209F309F20A031902
:103A0E00F30AF601F60AF11F0D2D0E2D132DF009F6
:103A1E00F109F00A0319F10A700871040319182D3F
:103A2E00192D422DF501F50A252D0130F035F10D38
:103A3E00890B1D2D0130F4007408F507F11F282D98
:103A4E00292D1C2D71087302031D2F2D7008720273
:103A5E00031C322D332D372D7008F2027108F33B03
:103A6E000130F136F00C890B382D0130F502031DB3
:103A7E00412D422D292D76080319462D472D4C2D0B
:103A8E00F209F309F20A0319F30A7308F100720836
:103A9E00F000080072080319552D562D5B2D720883
:103AAE00031D5A2D5B2D602D7008883102209D312B
:103ABE00A62D7208033E8600013087001600010411
:103ACE0003196A2D6B2D8A2D7208033E8600013074
:103ADE008700403FF300413FF400720A8600013038
:103AEE008700403FF500413FF6007608803AF70028
:103AFE007408803A7702031D862D73087502031829
:103B0E00892D8A2DA62D7008F300720886000130CB
:103B1E008700720A84000130850000080107F40056
:103B2E00740886000130870073088100720A8600CF
:103B3E00013087000130810741310318810A0800E6
:103B4E00F5007508F4007408F8007108F7007008A5
:103B5E00F6000130F2020030F33B720A031DBB2D5A
:103B6E00730A031DBB2DBC2DCB2DF001F101FE2DD3
:103B7E000130F4007408F8070130F6070030F73D05
:103B8E000130F2020030F33B78088600870101080D
:103B9E000319D22DD32DF12D7608840077088500D8
:103BAE0012000319DB2DDC2DF12D7208730403199D
:103BBE00E12DE22DF12D76088400770885000008AE
:103BCE00F400780886008701010874060319F02DA9
:103BDE00F12DBF2D780886008701760884007708BE
:103BEE00850000080102F000F101031CF10308003A
:103BFE00F601F11F032E042E0B2EF009F109F00A27
:103C0E000319F10AF601F60AF31F0E2E0F2E182EC7
:103C1E00F209F309F20A0319F30A0130F4007408E9
:103C2E00F606F701F8017008710403191F2E202EF5
:103C3E004F2EF501F50A2C2E0130F035F10D890BC2
:103C4E00242E0130F4007408F507F11F2F2E302EAC
:103C5E00232E0130F735F80D890B312E71087302C2
:103C6E00031D3B2E70087202031C3E2E3F2E442E67
:103C7E007008F2027108F33B77140130F136F00C44
:103C8E00890B452E0130F502031D4E2E4F2E302E80
:103C9E0076080319532E542E592EF709F809F70AF0
:103CAE000319F80A7808F1007708F00008000310ED
:103CBE00720D730DF4007408FA007A08031D682E55
:103CCE00692E722E0030F3000030F2000030F10049
:103CDE000030F000D12E7008F4007108F500720863
:103CEE00F6007308F7001F30F736F60CF50CF40CDF
:103CFE00890B7B2E7408F8007808F900F217FF3054
:103D0E00F005FF30F105FF30F2050030F305963077
:103D1E00FA02FA1F932E942EAC2E7A08803A973E12
:103D2E0003189A2E9B2E9C2E692E0130F336F20C20
:103D3E00F10CF00C890B9D2E0130F4007408FA077B
:103D4E00031DAA2EAB2E9C2EC12E20307A02031CF0
:103D5E00B12EB22EBC2E692E0130F035F10DF20DC2
:103D6E00F30D890BB42E0130FA027A08031DC02E12
:103D7E00C12EB32E79080319C52EC62ED12EF009E9
:103D8E00F109F209F309F00A0319F10A0319F20A0B
:103D9E000319F30A0800220058082000A50022008B
:103DAE0057082000A400220056082000A30022007D
:103DBE0055082000A2007308A5007208A40071081F
:103DCE00A3007008A2002208F4002308F5002408BE
:103DDE00F6002508F7001730F736F60CF50CF40C44
:103DEE00890BF32EFF307405A00000307505A1007D
:103DFE0020082104031D042F052F262F2208F4006E
:103E0E002308F5002408F6002508F7000130F435E4
:103E1E00F50DF60DF70D890B0E2F77087604750448
:103E2E007404031D1B2F1C2F212F0230F0000030B5
:103E3E00F100502F0330F0000030F100502F200A17
:103E4E002104031D2B2F2C2F4C2F2208F4002308A6
:103E5E00F5002408F6002508F7000930F435F50DB5
:103E6E00F60DF70D890B352F77087604750474045B
:103E7E000319422F442F0130452F0030F800F9016D
:103E8E007808F0007908F100502F0430F00000306F
:103E9E00F10008002000A701A801A001A1015B2FDD
:103EAE000130F6070030F73DA601A60A7608840019
:103EBE00770885001200203A0319662F672F7C2F92
:103ECE0076088400770885000008F73EF800FF307A
:103EDE0003180030F900003079020530031978021A
:103EEE00031C7A2F7B2F7C2FA6012608F800F901E0
:103EFE007808A2007908A30022082304031D882F46
:103F0E00892F572F932F0130A0000030A1000130D0
:103F1E00F6070030F73DC72F760884007708850036
:103F2E000008F800F9017908003A03199F2FC72FEE
:103F3E0078082B3A03198E2F063A03198A2FC72FAA
:103F4E0076088400770885000008F8002808F1003C
:103F5E002708F0000A30F2000030F3009B313A23BC
:103F6E009F317108FA0078087002F900031CFA03F9
:103F7E007908303E2000A70000307A3DA8008E2F31
:103F8E0076088400770885000008D03EF800FF30E0
:103F9E0003180030F900003079020A300319780254
:103FAE00031CDA2FDC2F0130DD2F0030FA00FB016D
:103FBE007A08A4007B08A50024082504031DE82F19
:103FCE00E92FA72F20082104031DEE2FEF2FFB2F23
:103FDE002709F8002809F900F80A0319F90A7808E0
:103FEE00F6007908F700FF2F2808F7002708F600DB
:103FFE0008000A340A340D340A344D345134333443
:10400E002D344D344F344E34493454344F345234AD
:10401E002034563431342E34303430340D340A34A6
:10402E000034253464342C34253435342E34333472
:10403E00663456340D340A34003449344E34463422
:10404E0000344E3441344E34003469346E346634A8
:10405E0000346E3461346E3400346C3466340034A3
:020000040001F9
:08000000FF3FFF3FFF3FFF3F00
:08000E00EC3FF33FFF3FFF3F11
:00000001FF
